011000015O0110000150122415000000000FEDERAL RESERVE BANK                1000 PEACHTREE ST N.E.              ATLANTA             GA303094470877372245711     
011000028O0110000151072811000000000STATE STREET BANK AND TRUST COMPANY JAB2NW                              N. QUINCY           MA021710000617664240011     
011000138O0110000151101310000000000BANK OF AMERICA, N.A.               8001 VILLA PARK DRIVE               HENRICO             VA232280000800446013511     
011000206O0110000151072505000000000BANK OF AMERICA N.A                 PO BOX 27025                        RICHMOND            VA232617025800446013511     
011000390O0110000151072505000000000BANK OF AMERICA N.A                 PO BOX 27025                        RICHMOND            VA232617025800446013511     
011000536O0110000151111411000000000FEDERAL HOME LOAN BK BOST           9TH FLOOR                           BOSTON              MA021990000617292979011     
011001234O0110000151111715000000000BANK OF NEW YORK MELLON             500 ROSS ST.                        PITTSBURGH          PA152620000412236333811     
011001276O0110000151093014000000000ONEUNITED BANK                      SUITE 600                           BOSTON              MA021100000877663864811     
011001331O0110000151040315000000000CITIZENS BANK NA                    ROP440                              RIVERSIDE           RI029150000800883422411     
011001726O0110000151091213000000000THE FIRST NATIONAL BANK OF IPSWICH  625 GEORGE WASHINGTON HWY           LINCOLN             RI028650000401574192011     
011001742O0110000151072505000000000BANK OF AMERICA, N.A.               PO BOX 27025                        RICHMOND            VA232617025800446013511     
011001881O0110000151042017000000000FIDUCIARY TRUST CO                  PO BOX 55806                        BOSTON              MA022055806617292671711     
011001962O1210003742080312122203950CATHAY BANK                         RS-14                               ROSEMEAD            CA917700000626582733811     
011002343O0110000151071806000000000BOSTON PRIVATE BK + TR CO           ATTN: ACH ORPERATIONS               BOSTON              MA021094603617912423111     
011002550O0110000151071813000000000EASTERN BANK                        195 MARKET STREET                   LYNN                MA019010000800327837611     
011002725O0110000151082712000000000COMMERCE  BANK & TRUST CO           386 MAIN ST                         WORCESTER           MA016150000508797692311     
011002877O0110000151042610000000000EAST WEST BANK                      9300 FLAIR DRIVE, 4TH FLOOR         EL MONTE            CA917310000626371856111     
011075150O0110000151012015000000000SANTANDER                           MAIL CODE 10-6438-AH5               READING             PA196120000610463918211     
011075202O0110000151042114000000000SANTANDER BANK, N.A.                601 PENN STREET                     READING             PA196010000877768226511     
011099660O0110000150122415000000000FRB BOSTON ACCOUNTING DEPT.         1000 PEACHTREE STREET NE            ATLANTA             GA303090000877372245711     
011100012O0110000151072805000000000BANK OF AMERICA N.A.                PO BOX 27025                        RICHMOND            VA232617025800446013511     
011100106O0110000151031113000000000WELLS FARGO BANK                    MAC N9301-041                       MINNEAPOLIS         MN554790000800745242611     
011100805O0110000151072805000000000BANK OF AMERICA N.A                 P.O. BOX 27025                      RICHMOND            VA232617025800446013511     
011101613O0110000151020110000000000WEBSTER BANK                        436 SLATER RD                       NEW BRITAIN         CT060530000860612652211     
011102133O0110000152112116211371926HOMETOWN BANK                       31 SUTTON AVENUE                    OXFORD              MA015400000508987120011     
011102353O0110000151110101000000000FIRST NAT BANK OF SUFFIELD          30 BRIDGE STREET                    SUFFIELD            CT060780000860668395011     
011102502O0110000151110810000000000UNION SAVINGS BANK                  225 MAIN ST                         DANBURY             CT068100000203830420011     
011102612O0110000151072412000000000SALISBURY BANK & TRUST CO           100 MAIN STREET                     CANAAN              CT060180000860435980111     
011102638O0110000151060809000000000NATIONAL IRON BANK                  PO BOX 565                          SALISBURY           CT060680000860435258111     
011102667O0110000152121516011102612SALISBURY BANK & TRUST CO.          100 MAIN STREET                     CANAAN              CT060180000860435980111     
011103093O0110000151062711000000000TD BANK NA                          P.O. BOX 1377                       LEWISTON            ME042401377877898782111     
011103129O0110000151051302000000000JEWETT CITY SAVINGS BANK            135 DARLING DR                      AVON                CT060014218860376444411     
011104047O0110000151072505000000000BANK OF AMERICA N.A.                PO BOX 27025                        RICHMOND            VA232617025800446013511     
011104050B0110000151020110000000000WEBSTER BANK                        436 SLATER RD                       NEW BRITAIN         CT060530000860612652211     
011104131O0110000151032015000000000PEOPLE'S UNITED BANK, N.A.          850 MAIN STREET                     BRIDGEPORT          CT066010000203338717111     
011104173O0110000151101116000000000KEYBANK NATIONAL ASSOCIATION        NY-31-17-0119                       ALBANY              NY122110000800539296811     
011104199O0110000151032015000000000PEOPLE'S UNITED BANK, N.A.          850 MAIN STREET                     BRIDGEPORT          CT066010000203338717111     
011104209O0110000151020110000000000WEBSTER BANK                        436 SLATER RD                       NEW BRITAIN         CT060530000860612652211     
011104283O0110000152080312211174181SAVINGS INSTITUTE                   803 MAIN ST                         WILLIMANTIC         CT062260000860456656511     
011104322O0110000152020110211170101WEBSTER BANK N.A                    436 SLATER ROAD                     NEW BRITAIN         CT060530000860612652211     
011104335O0110000151081514000000000PRIME BANK                          7 OLD TAVERN ROAD                   ORANGE              CT064770000203799129911     
011104351O0110000151062314000000000SIMSBURY BANK & TRUST               86 HOPEMEADOW ST                    WEATOGUE            CT060890000860651209711     
011110617O0110000151081512000000000BANKERS' BANK NORTHEAST             43 WESTERN BOULEVARD                GLASTONBURY         CT060330000860266235911     
011110620O0110000152081009211174178NAUGATUCK SAVINGS BANK              PO BOX 370                          NAUGATUCK           CT067700370203720538111     
011110633O0110000151101414000000000UNITED BANK                         1645 ELLINGTON RD                   SOUTH WINDSOR       CT060740000860291379711     
011110646O0110000151101414000000000UNITED BANK                         1645 ELLINGTON RD                   SOUTH WINDSOR       CT060740000860291379711     
011110659O0110000152070714211170282LIBERTY BANK                        315 MAIN ST.                        MIDDLETOWN          CT064570000888570077311     
011110675O0110000151020110000000000WEBSTER BANK                        132 GRAND ST                        WATERBURY           CT067021909860612652211     
011110688O0110000152070714211170282LIBERTY BANK                        315 MAIN ST.                        MIDDLETOWN          CT064570000888570077311     
011110701O0110000151020110000000000WEBSTER BANK N.A.                   436 SLATER RD                       NEW BRITAIN         CT060530000860612652211     
011110730O0110000151111014000000000BANKWELL BANK                       208 ELM STREET                      NEW CANAAN          CT068400000203972383811     
011110743O0110000152091415211870935EASTHAMPTON SAVINGS BANK            241 NORTHAMPTON STREET              EASTHAMPTON         MA010270000413527411111     
011110756O0110000151050113000000000START COMMUNITY BANK                P O BOX 3110                        NEW HAVEN           CT065130000877687113311     
011175212O0110000151071806000000000INSURBANC                           10 EXECUTIVE DRIVE                  FARMINGTON          CT060320000860674230411     
011175319O0110000151062712000000000ROCKVILLE BANK                      1645 ELLINGTON RD                   SOUTH WINDSOR       CT060740000860291379711     
011175351O0110000151061110000000000DIME BANK                           290 SALEM TURNPIKE                  NORWICH             CT063600000856859430011     
011200022O0110000151051916000000000KEY BANK                            NY-31-17-0119                       ALBANY              NY122110000800539296811     
011200365O0110000151101310000000000BANK OF AMERICA, N.A.               8001 VILLA PARK DRIVE               HENRICO             VA232280000800446013511     
011200585O0110000151062514000000000DAMARISCOTTA BK&TR CO               P. O. BOX 999                       DAMARISCOTTA        ME045430999207563812111     
011200608O0110000151051916000000000KEY BANK                            NY-31-17-0119                       ALBANY              NY122110000800539296811     
011201115O0110000151081312000000000BAR HARBOR BANK & TRUST             P.O. BOX 1089                       ELLSWORTH           ME046051089207288331411     
011201306O0110000152100306011201458CAMDEN NATIONAL BANK                245 COMMERCIAL STREET               ROCKPORT            ME048560000800860882111     
011201380O0110000151031408000000000CAMDEN NATIONAL BANK                245 COMMERCIAL STREET               ROCKPORT            ME048560000800860882111     
011201403O0110000151020117000000000NORTHEAST BANK                      500 CANAL ST.                       LEWISTON            ME042400000207786324511     
011201432O0110000151032015000000000PEOPLE'S UNITED BANK, N.A.          850 MAIN STREET                     BRIDGEPORT          CT066010000203338717111     
011201458O0110000151091003000000000CAMDEN NATIONAL BANK                245 COMMERCIAL STREET               ROCKPORT            ME048560000800860882111     
011201490O0110000152101915011201458CAMDEN NATIONAL BANK                245 COMMERCIAL STREET               ROCKPORT            ME048560000800860882111     
011201500O0110000151032015000000000PEOPLE'S UNITED BANK, N.A.          850 MAIN STREET                     BRIDGEPORT          CT066010000203338717111     
011201526O0110000151032015000000000PEOPLE'S UNITED BANK, N.A.          850 MAIN STREET                     BRIDGEPORT          CT066010000203338717111     
011201539O0110000151071306000000000BANK OF AMERICA N.A.                PO BOX 27025                        RICHMOND            VA232617025800446013511     
011201759O0110000151080405000000000BAR HARBOR BANK & TRUST             P. O. BOX 1089                      ELLSWORTH           ME046051089207288331411     
011201762O0110000151071013000000000THE FIRST, N.A.                     7 BRISTOL ROAD                      DAMARISCOTTA        ME045430000207563319511     
011201830O0110000151071013000000000THE FIRST, N.A.                     7 BRISTOL ROAD                      DAMARISCOTTA        ME045430000207563319511     
011201995O0110000151071013000000000ANDROSCOGGIN SAVINGS BANK           PO BOX 1407                         LEWISTON            ME042437116207784916411     
011202392O0110000151071013000000000KATAHDIN TRUST COMPANY              P. O. BOX 36                        HOULTON             ME047300000207521045511     
011202907O0110000152101915011201458CAMDEN NATIONAL BANK                245 COMMERCIAL STREET               ROCKPORT            ME048560000800860882111     
011202910O0110000151071514000000000TD BANK USA, NA                     140 MILL STREET                     LEWISTON            ME042400000207755602311     
011202923B0110000151062514000000000DAMARISCOTTA BANK & TRUST COMPANY   P.O. BOX 999                        DAMARISCOTTA        ME045430000207563812111     
011202936O0110000151092313000000000THE FIRST, NATIONAL ASSOCIATION     PO BOX 940                          DAMARISCOTTA        ME045430940207563319511     
011275303O0110000151071707000000000GORHAM SAVINGS BANK                 10 WENTWORTH DR                     GORHAM              ME040380000207222143011     
011300142O0110000151081211000000000COMMERCE BANK & TRUST CO            386 MAIN ST                         WORCESTER           MA016150000508797692311     
011300595O0110000151071305000000000CAMBRIDGE TRUST COMPANY             10 FAWCETT ST.                      CAMBRIDGE           MA021383809617441156011     
011300605O0110000151072805000000000BANK OF AMERICA N.A.                P.O. BOX 27025                      RICHMOND            VA232617025800446013511     
011301390O0110000151121514000000000CENTURY BANK                        400 MYSTIC AVE                      MEDFORD             MA021550000781393469111     
011301536O0110000151071105000000000EASTERN BANK                        195 MARKET STREET                   LYNN                MA019010000781598789711     
011301604O0110000151071813000000000EASTERN BANK                        195 MARKET STREET                   LYNN                MA019010000800327837611     
011301798O0110000151051513000000000EASTERN BANK                        195 MARKET STREET                   LYNN                MA019010000800327837611     
011301992O0110000152072512211370642BANKFIVE                            79 N MAIN ST                        FALL RIVER          MA027402123774888611011     
011302357O0110000151080105000000000BANK OF AMERICA N.A.                PO BOX 27025                        RICHMOND            VA232617025800446013511     
011302438O0110000151080105000000000BANK OF AMERICA N.A.                PO BOX 27025                        RICHMOND            VA232617025800446013511     
011302519O0110000151071813000000000EASTERN BANK                        195 MARKET STREET                   LYNN                MA019010000800327837611     
011302603O0110000151062105000000000NORTHMARK BANK                      89 TURNPIKE ST                      NORTH ANDOVER       MA018450000978686910011     
011302616O0110000151032015000000000PEOPLE'S UNITED BANK, N.A.          850 MAIN STREET                     BRIDGEPORT          CT066010000203338717111     
011302742O0110000151061510000000000ENTERPRISE BANK & TRUST CO.         P.O. BOX 908                        LOWELL              MA018530908978656550711     
011302768O0110000151032015000000000PEOPLE'S UNITED BANK, N.A.          850 MAIN STREET                     BRIDGEPORT          CT066010000203338717111     
011302920O0110000151111715000000000BANK OF NEW YORK MELLON             500 ROSS ST.                        PITTSBURGH          PA152620000412236333811     
011303084B0110000151081413000000000CAMBRIDGE SAVINGS BANK              1374 MASS AVE                       CAMBRIDGE           MA021380000617441418311     
011303097O0110000151082509000000000NORTHERN BANK & TRUST CO            275 MISHAWUM ROAD                   WOBURN              MA018015005781569150011     
011303110O0110000152071105011301798EASTERN BANK                        195 MARKET STREET                   LYNN                MA019010000781598789711     
011303327O0110000151060910000000000MILFORD NATL BK&TR CO               300 E. MAIN STREET                  MILFORD             MA017570228508634410011     
011304300O0110000151101212000000000NATL GRAND BK MARBLEHEAD            91 PLEASANT ST                      MARBLEHEAD          MA019450000781631600011     
011304478O0110000151062912000000000ROCKLAND TRUST COMPANY              8 RICHARDS RD.                      PLYMOUTH            MA023600000800222229911     
011304517O0110000151040715000000000CITIZENS BANK NA                    ROP440                              RIVERSIDE           RI029150000800883422411     
011304711O0110000151091213000000000FIRST IPSWICH BANK                  625 GEORGE WASHINGTON HWY           LINCOLN             RI028650000401574192011     
011305202O0110000151091214000000000MILLBURY NATIONAL BANK              80 ELM STREET                       MILLBURY            MA015270000508865952111     
011305260O0110000151102714000000000INST FOR SVGS NEWBURYPORT           93 STATE ST                         NEWBURYPORT         MA019500000978462310611     
011305684O0110000151051517000000000ROCKLAND TRUST COMPANY              8 RICHARDS ROAD                     PLYMOUTH            MA023600000800222229911     
011305749O0110000151062711000000000TD BANK NA                          P.O. BOX 1377                       LEWISTON            ME042401377877898782111     
011306492B0110000151071713000000000EASTERN BANK                        195 MARKET STREET                   LYNN                MA019010000800327837611     
011306971O0110000152062912011304478ROCKLAND TRUST COMPANY              8 RICHARDS RD.                      PLYMOUTH            MA023600000800222229911     
011307077O0110000152071713011301798EASTERN BANK                        195 MARKET STREET                   LYNN                MA019010000800327837611     
011307116O0110000151101414000000000UNITED BANK                         1645 ELLINGTON RD                   SOUTH WINDSOR       CT060740000860291379711     
011307129O0110000151062105000000000LEADER BANK , N.A.                  180 MASSACHUSETTS  AVE              ARLINGTON           MA024740000781646390011     
011307158O0110000151092010000000000STATE STREET BANK & TRUST           ACH SERVICES                        N QUINCY            MA021710000617664240011     
011307161O0110000151061410000000000CENTURY BANK AND TRUST CO           400 MYSTIC AVENUE                   MEDFORD             MA021550000781393611011     
011307174O0110000152111416011304478ROCKLAND TRUST COMPANY              8 RICHARDS ROAD                     PLYMOUTH            MA023600000800222229911     
011307187O0110000151071513000000000NORTHMARK BANK                      PO BOX 825                          NORTH ANDOVER       MA018450000978686910011     
011307213O0110000151031510000000000FIRST COMMONS BANK, NA              718 BEACON ST                       NEWTON              MA024590000617243440011     
011307226O0110000151010416000000000FIRST IPSWICH BANK                  625 GEORGE WASHINGTON HWY           LINCOLN             RI028650000401574198511     
011307239O0110000151050815000000000COMMERCE BANK & TRUST COMPANY       386 MAIN STREET                     WORCESTER           MA016150000508797692311     
011375164O0110000151063014000000000BROOKLINE BANK                      625 GEORGE WASHINGTON HWY           LINCOLN             RI028650000401574198511     
011375245O0110000151042114000000000SANTANDER BANK, N.A.                1125 BEKSHIRE BOULEVARD             WYOMISSING          PA196100000877768226511     
011375274O0110000151040306000000000PATRIOT COMMUNITY BANK              237 LEXINGTON STREET                WOBURN              MA018010000781935331811     
011375368O0110000151010416000000000BROOKLINE BANK                      625 GEORGE WASHINGTON HWY           LINCOLN             RI028650000401574198511     
011375384O0110000151061015000000000AVIDIA BANK                         42 MAIN STREET                      HUDSON              MA017490000978567354411     
011392626O0110000151020497000000000MORTON FEDERAL CREDIT UNION         88 WASHINGTON STREET                TAUNTON             MA027800000508828703611     
011392684B0110000151081610000000000LEOMINSTER CREDIT UNION             20 ADAMS STREET                     LEOMINSTER          MA014530000978537802111     
011400071O0110000151062711000000000TD BANK NA                          P.O. BOX 1377                       LEWISTON            ME042401377877898782111     
011400149O0110000151091212000000000ST MARY'S BANK                      48 PERIMETER RD                     MANCHESTER          NH031030000603669460011     
011400178O0110000151022009000000000BANK OF AMERICA                     1400 BEST PLAZA DR                  RICHMOND            VA232270000804627716511     
011400495O0110000151101310000000000BANK OF AMERICA, N.A.               8001 VILLA PARK DRIVE               HENRICO             VA232280000800446013511     
011401135O0310000402042114231372691SANTANDER BANK, N.A.                MAIL STOP CP-201                    LAWRENCE            MA018410000978689850011     
011401533O0110000151042715000000000CITIZENS BANK NA                    1 CITIZENS DRIVE  ROP440            RIVERSIDE           RI029150000800883422411     
011401850O0110000151070708000000000BANK OF NEW ENGLAND                 31 PELHAM ROAD                      SALEM               NH030790000603894570011     
011401876O0110000152032015221172186PEOPLE'S UNITED BANK, N.A.          850 MAIN ST                         BRIDGEPORT          CT066040000203338622411     
011401928O0110000152072007211470225MERRIMACK COUNTY SVGS BANK          89 NORTH MAIN                       CONCORD             NH033019963603225279311     
011401957O0110000151062411000000000TD BANK NA (PC)                     P.O. BOX 1377                       LEWISTON            ME042401377877898782111     
011401960O0110000152032015221172186PEOPLE'S UNITED BANK, N.A.          850 MAIN ST                         BRIDGEPORT          CT066040000203338622511     
011402008O0110000151051916000000000KEY BANK                            NY-31-17-0119                       ALBANY              NY122110000800539296811     
011402024O0110000151102714000000000EASTERN BANK                        195 MARKET STREET                   LYNN                MA019010000800327837611     
011402053O0110000151072914000000000NBT BANK NA                         51 SOUTH BROAD STREET               NORWICH             NY138150000800628226511     
011402066O0110000151052217000000000BAR HARBOR BANK & TRUST             P.O. BOX 1089                       ELLSWORTH           ME046051089207288331411     
011402079O0110000151071513000000000OPTIMA BANK AND TRUST               TWO HARBOUR PLACE                   PORTSMOUTH          NH038010000603433960011     
011402105O0110000151072815000000000PRIMARY BANK                        207 ROUTE 101                       BEDFORD             NH031100000603930009511     
011500010O0110000151101310000000000BANK OF AMERICA, N.A.               8001 VILLA PARK DRIVE               HENRICO             VA232280000800446013511     
011500120O0110000151051514000000000CITIZENS BANK, NATIONAL ASSOCIATION 1 CITIZENS DRIVE                    RIVERSIDE           RI029150000800883422411     
011500858O0110000151060409000000000WASHINGTON TRUST COMPANY            2 CROSSWIND ROAD                    WESTERLY            RI028911827401348152411     
011500913O0110000151022217000000000CENTREVILLE BANK                    PO BOX 1009                         WEST WARWICK        RI028930909401821910011     
011501035O0110000151080305000000000BANK OF AMERICA N.A.                PO BOX 27025                        RICHMOND            VA232617025800446013511     
011501598O0110000152090913211174181SAVINGS INSTITUTE                   803 MAIN ST                         WILLIMANTIC         CT062260000860423458111     
011501682O0110000151111314000000000BANK RHODE ISLAND                   625 GEORGE WASHINGTON HIGHWAY       LINCOLN             RI028650000401574198511     
011501705O0110000151030416000000000FREEDOM NATIONAL BANK               75 PARK STREET                      LEE                 MA012380000413243927911     
011501718O0110000151070110000000000INDEPENDENCE BANK                   1370 SOUTH COUNTY TRAIL             EAST GREENWICH      RI028180000401886460011     
011501747O0110000151110116000000000U.S. BANK NA                        60 LIVINGSTON                       ST. PAUL            MN551071419800937631011     
011501750O0110000151110513000000000THE WASHINGTON TRUST COMPANY        2 CROSSWINDS ROAD                   WESTERLY            RI028910000401348152411     
011501763O0110000151063014000000000BANK RHODE ISLAND                   625 GEORGE WASHINGTON HIGHWAY       LINCOLN             RI028650000401574198511     
011575236O1210003742060815122287251BOFI FEDERAL BANK                   STE 140                             SAN DIEGO           CA921220000858350620011     
011592675O0110000151030509000000000WESTERLY COMMUNITY CREDIT UNION     122 GRANITE STREET                  WESTERLY            RI028910000401637443411     
011600020O0110000151051517000000000COMMUNITY BANK, NA                  1 TALLMAN ROAD                      CANTON              NY136170000315379454511     
011600033O0110000151062711000000000TD BANK NA                          P.O. BOX 1377                       LEWISTON            ME042401377877898782111     
011600062O0110000151032015000000000PEOPLE'S UNITED BANK, N.A.          P.O. BOX 820                        BURLINGTON          VT054020000203338717111     
011600486O0110000152032015221172186PEOPLE'S UNITED BANK, N.A.          850 MAIN ST                         BRIDGEPORT          CT066040000203338622411     
011600525O0110000151062711000000000TD BANK NA                          P.O. BOX 1377                       LEWISTON            ME042401377877898782111     
011600567O0110000151071514000000000PEO TR CO ST ALBANS                 PO BOX 320                          ST. ALBANS          VT054780551802524219611     
011600570O0110000151062711000000000TD BANK NA                          P.O. BOX 1377                       LEWISTON            ME042401377877898782111     
011600622O0110000152032015221172186PEOPLE'S UNITED BANK, N.A.          850 MAIN ST                         BRIDGEPORT          CT066040000203338622411     
011600774O0110000152052217011201759BAR HARBOR BANK & TRUST             PO BOX 1089                         ELLSWORTH           ME046051089207288331411     
011600868O0110000152081313011601029COMMUNITY NATIONAL BANK             4811 US RTE 5                       DERBY               VT058290000802334791511     
011601029O0110000151072214000000000COMMUNITY NATIONAL BANK             4811 US ROUTE 5                     NEWPORT             VT058550000802334791511     
011601074O0110000152070512211871691BERKSHIRE BANK                      99 NORTH STREET                     PITTSFIELD MA       VT012010000800773560111     
011601087O0110000151070714000000000NATL BANK OF MIDDLEBURY             30 MAIN STREET                      MIDDLEBURY          VT057530000802388498211     
011601100O0110000151021115000000000THE UNION BANK                      PO BOX 667                          MORRISVILLE         VT056610667802888660011     
011601142O0110000151061510000000000FIRST NAT BANK OF ORWELL            441 MAIN ST                         ORWELL              VT057600000802948281111     
011601171O0110000151052217000000000BAR HARBOR BANK & TRUST             P.O.BOX 1089                        ELLSWORTH           ME046051089207288331411     
011601236O0110000152052217011201759BAR HARBOR BANK & TRUST             PO BOX 1089                         ELLSWORTH           ME046051089207288331411     
011601265O0110000151032315000000000PEOPLES UNITED BANK, N.A.           850 MAIN ST                         BRIDGEPORT          CT066040000203338622411     
011675343B0110000151061010000000000NORTHFIELD SAVINGS BANK             33 SOUTH MAIN STREET                NORTHFIELD          VT056630000802485587111     
011692588O0110000151080213000000000OPPORTUNITIES CREDIT UNION          STE 203 P.O. BOX                    WINOOSKI            VT054040000802865454011     
011692601O0110000152040417211691185VERMONT STATE EMPLOYEES C.U.        PO BOX 67                           MONTPELIER          VT056010000802371516211     
011700425O0110000151100305000000000NORTHWAY BANK                       9 MAIN STREET                       BERLIN              NH035700000603752117111     
011701288O0110000151061708000000000NORTHWAY BANK                       9 MAIN ST                           BERLIN              NH035700000603752117111     
011701314O0110000151032615000000000GRANITE BANK                        132 MAIN ST                         COLEBROOK           NH035760000603237555111     
011701424O0110000151120814000000000MASCOMA SAVINGS BANK                243 SYKES MOUNTAIN AVE              WHITE RIVER JUNCTIONVT050010000603448365011     
011701660O0110000151052217000000000BAR HARBOR BANK & TRUST             P. O. BOX 1089                      ELLSWORTH           ME046051089207288331411     
011701903O0110000152050916211770271BANK OF NEW HAMPSHIRE               62 PLEASANT STREET                  LACONIA             NH032460000603524121211     
011701987O0110000151060509000000000LEDYARD NATIONAL BANK               SUITE ONE                           WEST LEBANON        NH037840000603790174411     
011736020O0110000151052307000000000U.S. TREASURY (STORED VALUE CARD)   P.O. BOX 55882                      BOSTON              MA022050000877973898211     
011736114O0110000151052307000000000U.S. TREASURY (STORED VALUE CARD)   P.O. BOX 55882                      BOSTON              MA022050000877973898211     
011736525O0110000151032217000000000U.S. TREASURY (SVC) NAVY CASH       600 ATLANTIC AVE                    BOSTON              MA022100000877973898211     
011775285O0110000151090606000000000MASCOMA SAVINGS BANK                PO BOX 4399                         WHITE RIVER         VT050010000802280427011     
011775379O0110000151071212000000000SUGAR RIVER BANK                    P O BOX 569                         NEWPORT             NH037730000603863300011     
011801052O0110000151080305000000000BANK OF AMERICA N.A.                PO BOX 27025                        RICHMOND            VA232617025800446013511     
011802488O0110000151032015000000000PEOPLE'S UNITED BANK, N.A.          850 MAIN STREET                     BRIDGEPORT          CT066010000203338717111     
011804185O0110000151080305000000000BANK OF AMERICA N.A.                PO BOX 27025                        RICHMOND            VA232617025800446013511     
011805388O0110000152101915211871523ADAMS COMMUNITY BANK                P.O. BOX 306                        ADAMS               MA012200306413743000111     
011807043O0110000151101116000000000KEYBANK NATIONAL ASSOCIATION        NY-31-17-0119                       ALBANY              NY122110000800539296811     
011807140O0110000151092013000000000ADMIRALS BANK                       15 PARK ROW WEST                    PROVIDENCE          RI029030000401248733711     
011807205O0110000151051517000000000COMMUNITY BANK, NA                  1 TALLMAN ROAD                      CANTON              NY136170000315379454511     
011900254O0110000151071814000000000BANK OF AMERICA N.A.                PO BOX 27025                        RICHMOND            VA232617025800446013511     
011900445O0110000151080305000000000BANK OF AMERICA N.A                 PO BOX 27025                        RICHMOND            VA232617025800446013511     
011900571O0110000151101310000000000BANK OF AMERICA, N.A.               8001 VILLA PARK DRIVE               HENRICO             VA232280000800446013511     
011900652O0110000151080205000000000BANK OF AMERICA N.A.                PO BOX 27025                        RICHMOND            VA232617025800446013511     
011910697O0110000151110512000000000BERKSHIRE BANK                      99 NORTH STREET                     PITTSFIELD          MA012010000800773560111     
011975221O0110000151102615000000000TCF NATIONAL BANK                   MC:PCC-1B-J                         PLYMOUTH            MN554410000763337694611     
021000018O0210012081111715000000000BANK OF NEW YORK MELLON             500 ROSS ST.                        PITTSBURGH          PA152620001412236333811     
021000021O0210012081082416000000000JPMORGAN CHASE                      3RD FLOOR                           TAMPA               FL336100000813432370011     
021000089O0210012081101012000000000CITIBANK NA                         1 PENNS WAY                         NEW CASTLE          DE197200000302323426011     
021000128O0210012081061002000000000JPMORGAN CHASE                      3RD FLOOR                           TAMPA               FL336100000813432370011     
021000322O0210012081072105000000000BANK OF AMERICA, N.A.               VA2-430-01-01                       RICHMOND            VA232617025800446013511     
021000678O0210012081111715000000000BANK OF NEW YORK MELLON             500 ROSS ST.                        PITTSBURGH          PA152620001412236333811     
021001033O0210012081102813000000000DEUTSCHE BANK TRUST CO AMERICAS     MAIL STOP JCY-03-0510               JERSEY CITY         NJ073110000201593761011     
021001088O0210012081041309000000000HSBC BANK USA, N.A.                 EAST PLAZA                          BUFFALO             NY142032801877472224911     
021001208O0210012080122415000000000FEDERAL RESERVE BANK                100 ORCHARD STREET                  EAST RUTHERFORD     NJ070730000877372245711     
021001318O0210012081022208000000000BANK OF AMERICA                     PO BOX 27025                        RICHMOND            VA232617025800446013511     
021001486O0210012081021113000000000CITIBANK N.A.                       ONE PENN'S WAY                      NEW CASTLE          DE197200000302323426011     
021004823O0210012081031609000000000HSBC BANK, USA                      EAST PLAZA                          BUFFALO             NY142200000877472224911     
021031207O0210012081082416000000000JPMORGAN CHASE                      FL3-1404                            TAMPA               FL336100000866545650511     
021033205O0210012081051515000000000FREDDIE MAC                         MSD5N                               MCLEAN              VA221020000571382416011     
021039500O0210012081042507000000000FANNIE MAE                          MS 2H/3W-08                         WASHINGTON          DC200160000202752601811     
021039513O0210012081032409000000000FREDDIE MAC                         MAILSTOP - D5N                      MCLEAN              VA221020000571382416011     
021050466O0210012080031209000000000DISBURSING DIVISION - NEW YORK      1ST FLOOR                           EAST RUTHERFORD     NJ070730000201531377511     
021051384O0210012081031302000000000GNMA WASH I P&I                     1ST FLOOR                           EAST RUTHERFORD     NJ070730000201531315511     
021051452O0210012081031302000000000FRB GNMA P&I                        1ST FLOOR                           EAST RUTHERFORD     NJ070730000201531315511     
021052053O0210012081090409000000000JOINT UPIC ACCOUNT                  115 BUSINESS PARK DR.               WINSTON-SALEM       NC273100000800875224211     
021053939O0210012080090517000000000CORPORATE GROUP                     100 ORCHARD STREET                  EAST RUTHERFORD     NJ070730000201531377511     
021100329O0110000151072105000000000BANK OF AMERICA, N.A.               VA2-430-01-01                       RICHMOND            VA232617025800446013511     
021100361O0110000151061002000000000JPMORGAN CHASE                      3RD FLOOR                           TAMPA               FL336100000813432370011     
021101108O0110000151031113000000000WELLS FARGO BANK                    MAC N9301-041                       MINNEAPOLIS         MN554790000800745242611     
021101425O0110000151062711000000000TD BANK NA                          P.O. BOX 1377                       LEWISTON            MA042401377877898782111     
021101438O0110000151020110000000000WEBSTER BANK                        436 SLATER RD                       NEW BRITIAN         CT060530000860612652211     
021101470O0110000151111715000000000BANK OF NEW YORK MELLON             500 ROSS ST.                        PITTSBURGH          PA152620001412236333811     
021109935O0110000151072105000000000BANK OF AMERICA, N.A.               VA2-430-01-01                       RICHMOND            VA232617025800446013511     
021110209O0210012081101116000000000KEYBANK NATIONAL ASSOCIATION        NY-31-17-0119                       ALBANY              NY122110000800539296811     
021110966O0110000151022114000000000BANKWELL BANK                       208 ELM STREET                      NEW CANAAN          CT068400000203972383811     
021111800O0110000151020110000000000WEBSTER BANK                        436 SLATER RD                       NEW BRITAIN         CT060530000860612652211     
021112935O0110000151092815000000000PATRIOT BANK, NATIONAL ASSOCIATION  1177 SUMMER ST                      STAMFORD            CT069050000203251822211     
021113125O0110000151062608000000000THE GREENWICH BANK & TRUST CO.      BLDG 2                              FAIRFIELD           CT068240000203319626011     
021113196O0110000151060809000000000FAIRFIELD COUNTY BANK CORP          94 DANBURY RD                       RIDGEFIELD          CT068770000203431743111     
021113251O0110000151062608000000000WESTPORT NATIONAL BANK              BLDG 2                              FAIRFIELD           CT068240000203319626011     
021113662O0110000151090913000000000BANKWELL BANK                       208 ELM STREET                      NEW CANAAN          CT068400000203972383811     
021114111O0110000151061110000000000DARIEN ROWAYTON BANK                1001 POST RD                        DARIEN              CT068200000203656350011     
021114153O0110000151070912000000000THE FIRST BANK OF GREENWICH         444 EAST PUTNAM AVE                 COSCOB              CT068070000203629840011     
021114205O0110000151082416000000000JPMORGAN CHASE                      THIRD FLOOR                         TAMPA               FL336100000813432370011     
021114263O0110000151111606000000000HSBC NATIONAL BANK USA              7 LANDMARK SQUARE                   STAMFORD            CT069010000877472224911     
021114483O0110000151101513000000000BANKWELL BANK                       208 ELM STREET                      NEW CANAAN          CT068400000203972383811     
021114771O0110000151090913000000000BANKWELL BANK                       208 ELM STREET                      NEW CANAAN          CT068400000203972383811     
021114784O0110000151090913000000000BANKWELL BANK                       2150 POST ROAD                      FAIRFIELD           CT068240000203659760011     
021172661O0110000151091514000000000NEW YORK COMMUNITY BANK             102 DUFFY AVENUE                    HICKSVILLE          NY118010000516500631011     
021172768O0110000151041807000000000NEWTOWN SAVINGS BANK                39 MAIN STREET                      NEWTOWN             CT064700000203426444011     
021172784O0110000151062612000000000FIELDPOINT PRIVATE BANK & TRUST     100 FIELD POINT ROAD                GREENWICH           CT068300000203413935711     
021200012O0210012081040808000000000PNC BANK NEWARK                     P7-PFSC-03-H                        PITTSBURGH          PA152190000877824500111     
021200025O0210012081091012000000000WELLS FARGO BANK                    MAC N9301-041                       MINNEAPOLIS         MN554790000800745242611     
021200339O0210012081101310000000000BANK OF AMERICA N.A.                8001 VILLA PARK DRIVE               HENRICO             VA232280000800446013511     
021200407O0210012081102811000000000CAPITAL ONE, N.A.                   P.O. BOX 85139                      RICHMOND            VA232380000866561258011     
021200559O0210012081091012000000000WELLS FARGO BANK                    MAC N9301-041                       MINNEAPOLIS         MN554790000800745242611     
021200575O0210012081040808000000000PNC BANK N.A.                       P7-PFSC-03-H                        PITTSBURGH          PA152190000877824500111     
021200957O0210012081062711000000000TD BANK, NA                         P.O. BOX 1377                       LEWISTON            ME042401377877898782111     
021201011O0210012081091012000000000WELLS FARGO BANK                    MAC N9301-041                       MINNEAPOLIS         MN554790000800745242611     
021201383O0210012081040209000000000VALLEY NATIONAL BANK                1460 VALLEY RD                      WAYNE               NJ074700000973305880011     
021201503O0210012081062711000000000TD BANK NA                          P.O. BOX 1377                       LEWISTON            ME042401377877898782111     
021201600O0210012081032709000000000VALLEY NATIONAL BANK                1460 VALLEY ROAD                    WAYNE               NJ074700000973305880011     
021201639O0210012081040412000000000CITY NATIONAL BANK OF N.J.          900 BROAD STREET                    NEWARK              NJ071020000973624086511     
021201943O0210012081040808000000000PNC BANK                            500 FIRST AVENUE                    PITTSBURGH          PA152190000877824500111     
021202162O0210012081072105000000000BANK OF AMERICA N.A                 VA2-430-01-01                       RICHMOND            VA232617025800446013511     
021202191O0210012081040808000000000PNC BANK                            500 FIRST AVENUE                    PITTSBURGH          PA152190000877824500111     
021202311O0210012081040808000000000PNC BANK N.A.                       P7-PFSC-03-H                        PITTSBURGH          PA152190000877824500111     
021202337O0210012081061002000000000JPMORGAN CHASE                      3RD FLOOR                           TAMPA               FL336100000813432370011     
021202447O0210012081040808000000000PNC BANK N.A.                       P7-PFSC-03-H                        PITTSBURGH          PA152190000877824500111     
021202609O0210012081072105000000000BANK OF AMERICA, N.A.               VA2-430-01-01                       RICHMOND            VA232617025800446013511     
021202719O0210012081082416000000000JPMORGAN CHASE                      THIRD FLOOR                         TAMPA               FL336100000813432370011     
021203310O0210012082041608021205376LAKELAND BANK                       250 OAK RIDGE ROAD                  OAK RIDGE           NJ074360000973948951111     
021203501O0210012081072505000000000BANK OF AMERICA, N.A.               VA2-430-01-01                       RICHMOND            VA232617025800446013511     
021203682O0210012081040209000000000VALLEY NATL BANK                    1460 VALLEY ROAD                    WAYNE               NJ074700000973305880011     
021203792O0210012082032006021205376LAKELAND BANK                       250 OAK RIDGE RD                    OAK RIDGE           NJ074380000973948951111     
021204403O0210012081032709000000000VALLEY NATIONAL BANK                1460 VALLEY RD                      WAYNE               NJ074700000973305880011     
021204416O0210012081071811000000000AMBOY BANK                          3590 U.S. HIGHWAY 9                 OLD BRIDGE          NJ088570000732591870011     
021204597O0210012081050509000000000FIRST HOPE BANK                     201 ROUTE 94                        COLUMBIA            NJ078250000908459412111     
021205237O0210012081072312000000000PEAPACK-GLADSTONE BANK              2 CROSSROADS DRIVE                  BEDMINSTER          NJ079210000908234070011     
021205253O0210012081032709000000000VALLEY NATIONAL BANK                1460 VALLEY RD                      WAYNE               NJ074700000973305880011     
021205376O0210012081060303000000000LAKELAND BANK                       250 OAK RIDGE ROAD                  OAK RIDGE           NJ074388906973948951111     
021205499O0210012081041709000000000THE PROVIDENT BANK                  830 BERGEN AVENUE                   JERSEY CITY         NJ073060000201915553511     
021205648O0210012081072114000000000CONNECTONE BANK                     301 SYLVAN AVENUE                   ENGLEWOOD CLIFFS    NJ076320000201816890011     
021205871O0210012081062711000000000TD BANK NA                          P.O. BOX 1377                       LEWISTON            ME042401377877898782111     
021206074O0210012081112213000000000SANTANDER BANK                      601 PENN ST., 5TH FLOOR             READING             PA196010000877768226511     
021206249O0210012081121914000000000SUSSEX BANK                         15 TRINITY ST                       NEWTON              NJ078600000844256732811     
021206278O0210012081071811000000000AMBOY BANK                          3590 US HIGHWAY 9                   OLD BRIDGE          NJ088570000732591870011     
021206537O0210012081040209000000000VALLEY NATIONAL BANK                1460 VALLEY RD                      WAYNE               NJ074500000973305880011     
021206566O0210012081032709000000000VALLEY NATIONAL BANK                1460 VALLEY ROAD                    WAYNE               NJ074700000973305880011     
021206582O0210012081030304000000000ATLANTIC STEWARDSHIP BANK           630 GODWIN AVENUE                   MIDLAND PK          NJ074320000201444710011     
021206676O0210012081112213000000000SANTANDER BANK                      601 PENN ST., 5TH FLOOR             READING             PA196010000877768226511     
021206715O0210012081040209000000000VALLEY NATIONAL BANK                1460 VALLEY ROAD                    WAYNE               NJ074700000973305880011     
021206948O0210012081032614000000000BRUNSWICK BK & TR. CO.              439 LIVINGSTON AVENUE               NEW BRUNSWICK       NJ089010000732247580011     
021206993O0210012081032709000000000VALLEY NATIONAL BANK                1460 VALLEY ROAD                    WAYNE               NJ074700000973305880011     
021207002O0210012081112213000000000SANTANDER BANK                      601 PENN ST., 5TH FLOOR             READING             PA196010000877768226511     
021207028O0210012081012015000000000SANTANDER BANK                      MAIL CODE 10-6438-AH5               READING             PA196120000610463918211     
021207044O0210012081032709000000000VALLEY NATIONAL BANK                1460 VALLEY ROAD                    WAYNE               NJ074700000973305880011     
021207057O0210012082032006021205376LAKELAND BANK                       250 OAK RIDGE ROAD                  OAK RIDGE           NJ074388906973948951111     
021207112O0210012081091514000000000NEW YORK COMMUNITY BANK             102 DUFFY AVENUE                    HICKSVILLE          NY118010000516500631011     
021207138O0210012081060613000000000TD BANK, NA                         P.O. BOX 1377                       LEWISTON            ME042401377877898782111     
021207154O02100120810703120000000001ST CONSTITUTION BANK               2ND FLOOR                           CRANBURY            NJ085120000609578440111     
021207196O0210012081043010000000000COMMUNITY BANK OF BERGEN COUNTY     18 RAILROAD AVE. 2ND FL.            ROCHELLE PARK       NJ076620000201587133311     
021207206O0210012081062711000000000TD BANK NA                          P.O. BOX 1377                       LEWISTON            ME042401377877898782111     
021207235O0210012081040209000000000VALLEY NATIONAL BANK                1460 VALLEY  RD                     WAYNE               NJ074500000973305880011     
021207280O0210012081032709000000000VALLEY NATIONAL BANK                1460 VALLEY RD                      WAYNE               NJ074700000973305880011     
021207358O0210012081012015000000000SANTANDER BANK                      MC: 10-6438-AH5                     READING             PA196120000610463918211     
021207413O0210012081062711000000000TD BANK NA                          P.O. BOX 1377                       LEWISTON            ME042401377877898782111     
021209990O0210012081102411000000000FULTON BANK OF NEW JERSEY           450 BRIDGETON PIKE                  MANTUA              NJ080510000856415413011     
021210044O0210012081052914000000000FULTON BANK OF NEW JERSEY           450 BRIDGETON PIKE                  MANTUA              NJ080510000856415413011     
021210057O0210012081031010000000000UNITY BANK                          ATT: DEPOSIT SERVICES               CLINTON             NJ088090000800618226511     
021210073O0210012081031611000000000WOORI AMERICA BANK                  16TH FLOOR                          BAYSIDE             NY100010000212244300011     
021210112O0310000402041014031207694CROWN BANK                          27 PRINCE STREET                    ELIZABETH           NJ072080000908659210011     
021213041O0210012082032006021205376LAKELAND BANK                       250 OAK RIDGE ROAD                  OAK RIDGE           NJ074380000937948951111     
021213054O0210012081012414000000000KEARNY FEDERAL SAVINGS BANK         120 PASSAIC AVENUE                  FAIRFIELD           NJ070040000973244405511     
021213096O1210003742031910122203950CATHAY BANK                         RS-14                               ROSEMEAD            CA917700000626582733811     
021213177O0210012082091514221278721NEW YORK COMMUNITY BANK             102 DUFFY AVENUE                    HICKSVILLE          NY118010000516500631011     
021213180O0210012081012414000000000KEARNY FEDERAL SAVINGS BANK         120 PASSAIC AVENUE                  FAIRFIELD           NJ070040000973244405511     
021213216O0210012081052013000000000THE TOWN BANK                       766 SHREWSBURY AVE                  TINTON FALLS        NJ077240000732389924511     
021213232O0210012082081213021205376LAKELAND BANK                       250 OAK RIDGE ROAD                  OAK RIDGE           NJ074380000973948951111     
021213300O0210012081072114000000000CONNECTONE BANK                     301 SYLVAN AVENUE                   ENGLEWOOD CLIFFS    NJ076320000201816890011     
021213313O0210012081032111000000000GRAND BANK, NA.                     2297 HIGHWAY 33                     HAMILTON            NJ086900000609514390011     
021213339O0210012081040209000000000VALLEY NATIONAL BANK                1460 VALLEY RD                      WAYNE               NJ074700000973305880011     
021213371O0210012081032814000000000NEW MILLENNIUM BANK                 57 LIVINGSTON AVENUE                NEW BRUNSWICK       NJ089010000732729439811     
021213397O0210012081071715000000000STERLING NATIONAL BANK              400 RELLA BOULEVARD                 MONTEBELLO          NY109010000845369804011     
021213410O0210012081111213000000000HAVEN SAVINGS BANK                  21 HARRISTOWN ROAD                  GLEN ROCK           NJ074520000201659360011     
021213449O0210012081092611000000000INVESTORS  BANK                     101 JFK PARKWAY                     SHORT HILLS         NJ070780000973924510011     
021213465O0210012081052013000000000TWO RIVER COMMUNITY BANK            766 SHREWSBURY AVE                  TINTON FALLS        NJ077240000732389924511     
021213481O0210012081040114000000000BCB COMMUNITY BANK                  591-595 AVENUE C                    BAYONNE             NJ070020000201823070011     
021213504O02100120810207140000000001ST CONSTITUTION BANK               2ND FLOOR                           CRANBURY            NJ085120000609578440111     
021213520O0210012081032414000000000BCB COMMUNITY BANK                  591-595 AVENUE C                    BAYONNE             NJ070020000201823070011     
021213559O0210012081032613000000000MARINER'S BANK                      935 RIVER ROAD                      EDGEWATER           NJ070200000201654328011     
021213591O0210012081062714000000000SYNCHRONY BANK                      334 MADISON AVENUE - COPS 1ST FLOOR MORRISTOWN          NJ079600000973254308011     
021213698O0210012081031116000000000LAKELAND BANK                       250 OAK RIDGE ROAD                  OAKRIDGE            NJ074380000973948951111     
021213711O0210012081031212000000000ENTERPRISE BANK                     490 KENILWORTH BLVD                 KENILWORTH          NJ070330000877604570511     
021213892O0210012082081616021213944CONNECTONE BANK                     301 SYLVAN AVE                      ENGLEWOOD CLIFFS    NJ076320000201510678311     
021213944O0210012081021113000000000CONNECTONE BANK                     301 SYLVAN AVENUE                   ENGLEWOOD CLIFFS    NJ076320000201816890011     
021213986O0210012081031512000000000HIGHLANDS STATE BANK                PO BOX 310                          VERNON              NJ074620000973764320011     
021214053O0210012081082914000000000THE PROVIDENT BANK                  100 WOOD AVE S                      JERSEY CITY         NJ088300000732590928811     
021214066O0210012081040314000000000INDUS AMERICAN BANK                 1536 OAK TREE ROAD                  ISELIN              NJ088300000732603820011     
021214082O0210012081011316000000000FIRST COMMERCE BANK                 105 RIVER AVE                       LAKEWOOD            NJ087010000732364003211     
021214095O0210012081042613000000000HIGHLANDS STATE BANK                P O BOX 160                         VERNON              NJ074620160973764320011     
021214163O0210012081053014000000000FIRST BANK                          1229 S BLACK HORSE PIKE             WILLIAMSTOWN        NJ080940000856728340011     
021214189O0210012081031909000000000BANK OF NEW JERSEY                  204 MAIN ST                         FORT LEE            NJ070240000201944720011     
021214273O0210012081031312000000000CROSS RIVER BANK                    885 TEANECK ROAD                    TEANECK             NJ076660000201808700011     
021214312B0210012081031610000000000PEAPACK-GLADSTONE BANK              BUILDING B                          BEDMINSTER          NJ079210000908306809011     
021214325O1210003742111416122041235BANK OF HOPE                        3200 WILSHIRE BLVD                  LOS ANGELES         CA900100000213639170011     
021214396B0210012081050912000000000SUSSEXBANK                          P.O. BOX 353                        FRANKLIN            NJ074160000973209201011     
021214435O0210012081042511000000000REGAL BANK                          SUITE 107                           LIVINGSTON          NJ070390000973716060011     
021214493O0210012081051515000000000FREEDOM BANK                        2ND FLOOR                           MAYWOOD             NJ076070000201977438911     
021214529O0210012081070108000000000NEW JERSEY COMMUNITY BANK           P O BOX 6609                        FREEHOLD            NJ077280000732431226511     
021214574O0210012081103116000000000REGAL BANK                          SUITE 107                           LIVINGSTON          NJ070390000973716060011     
021214749O0210012081031110000000000FIRST HOPE BANK, NA                 201 ROUTE 94                        COLUMBIA            NJ078250000908459412111     
021214862O0210012081030514000000000CROSS RIVER BANK                    885 TEANECK ROAD                    TEANECK             NJ076660000201808700011     
021214875O0210012081103114000000000CITY NATIONAL BANK OF NEW JERSEY    900 BROAD STREET                    NEWARK              NJ071020000973624086511     
021214891O0210012081010317000000000CROSS RIVER BANK                    885 TEANECK RD                      TEANECK             NJ076660000201808700011     
021272626O0210012081070617000000000BANCO POPULAR, NORTH AMERICA        10TH FLOOR                          NEW YORK            NY100040000877766557711     
021272655O0210012081012813000000000CITIBANK NA                         ONE PENN'S WAY                      NEW CASTLE          DE197200000302323426011     
021272723O0210012081082416000000000JPMORGAN CHASE                      10430 HIGHLAND MANOR DRIVE          TAMPA               FL336100000813432370011     
021272749O0210012081072114000000000CONNECTONE BANK                     301 SYLVAN AVENUE                   ENGLEWOOD CLIFFS    NJ076320000201816890011     
021272794O0210012081030714000000000INVESTORS  BANK                     101 JFK PARKWAY                     SHORT HILLS         NJ070780000973376510011     
021283547O0210012081092410000000000AFFINITY FEDERAL CREDIT UNION       73 MOUNTAIN VIEW BOULEVARD          BASKING RIDGE       NJ079200000908860393111     
021283615O0210012081083007000000000HMC (NJ) FEDERAL CREDIT UNION       2100 WESCOTT DRIVE                  FLEMINGTON          NJ088220000908788614811     
021283631O0210012081050616000000000NEW BRUNSWICK POSTAL F.C.U.         PO BOX 10088                        NEW BRUNSWICK       NJ089060088732985812011     
021283738O0210012081100307000000000NESTLE (FREEHOLD) FCU               61 JERSEYVILLE AVENUE               FREEHOLD,           NJ077280000732577720611     
021283767O0210012081113016000000000AFFINITY FEDERAL CREDIT UNION       PO BOX 621                          BASKING RIDGE       NJ079200000908860393111     
021283770O0210012081101207000000000ATLANTIC HEALTH FCU                 99 BEAUVIOR AVENUE                  SUMMIT              NJ079020000908522354011     
021283851O0210012082100616221279021PINNACLE FCU                        135 RARITAN CENTER PARKWAY          EDISON              NJ088370000732225150511     
021283916O02100120810505090000000001ST BERGEN FEDERAL CREDIT UNION     241 MOORE STREET                    HACKENSACK          NJ076010000201342518911     
021283929O0210012081112409000000000BAYONNE HOSPITAL EMPLOYEES FCU      29 EAST 29TH STREET                 BAYONNE             NJ070020000201858524411     
021283932O0210012081042213000000000ILA LOCAL 1235 FCU                  2ND FLOOR                           NEWARK              NJ071050000973344866011     
021283958O0210012081040714000000000POLISH & SLAVIC FEDERAL CREDIT UNION9 LAW DRIVE                         FAIRFIELD           NJ070040000973808324011     
021300019O0210012081042606000000000BANK OF AMERICA N.A                 VA2-430-01-01                       RICHMOND            VA232270000800446013511     
021300077O0210012081051916000000000KEY BANK                            NY-31-17-0119                       ALBANY              NY122110000800304985611     
021300336O0210012081051106000000000M & T BANK                          2ND FLOOR                           AMHERST             NY142280000800724224011     
021300381O0210012081051916000000000KEY BANK                            NY-31-17-0119                       ALBANY              NY122110000800304985611     
021300420O0210012081031609000000000HSBC BANK, USA                      P.O. BOX 643                        BUFFALO             NY142400000877472224911     
021300462O0210012081082416000000000JPMORGAN CHASE                      3RD FLOOR                           TAMPA               FL336100000813432370011     
021300556O0210012081051916000000000KEY BANK                            NY-31-17-0119                       ALBANY              NY122110000800304985611     
021300640O0210012081031209000000000HSBC BANK USA                       ONE HSBC CTR - EAST PLAZA           BUFFALO             NY142030000877472224911     
021300912O0210012081033109000000000TRUSTCO BANK                        320 STATE STREET                    SCHENECTADY         NY123050000518381363911     
021301089O0210012081031209000000000HSBC BANK, USA                      P.O. BOX 643                        BUFFALO             NY142400000877472224911     
021301115O0210012081032614000000000CHEMUNG CANAL TRUST CO              ONE CHEMUNG CANAL PLAZA             ELMIRA              NY149010000607737376611     
021301678O0210012081042105000000000HSBC BANK,  USA                     P.O. BOX  643                       BUFFALO             NY142400000877472224911     
021301869O0210012081031209000000000HSBC BANK, USA                      EAST PLAZA                          BUFFALO             NY142030000877472224911     
021302130O0210012081040714000000000NBT BANK NA                         51 SOUTH BROAD ST                   NORWICH             NY138150000800628226511     
021302143O0210012081040714000000000NBT BANK                            51 SOUTH BROAD ST                   NORWICH             NY138150000800628226511     
021302554O0210012081041307000000000GLENS FALLS NATL BK&TR CO           250 GLEN ST                         GLENS FALLS         NY128010000518793412111     
021302567O0210012081062711000000000TD BANK NA                          P.O. BOX 1377                       LEWISTON            ME042401377877898782111     
021302622O0210012081072505000000000BANK OF AMERICA, N.A.               VA2-430-01-01                       RICHMOND            VA232617025800446013511     
021302648O0210012081010302000000000TOMPKINS TRUST COMPANY              P.O. BOX 460                        ITHACA              NY148500000607256321011     
021302884O0210012081060208000000000THE ADIRONDACK TRUST COMPANY        31 CHURCH STREET                    SARATOGA SPRINGS    NY128660000518584584411     
021302978O0210012081113007000000000M & T BANK                          SECOND FLOOR                        AMHERST             NY142280000800724224011     
021303139O0210012081040714000000000NBT BANK NA                         51 SOUTH BROAD ST                   NORWICH             NY138150000800628226511     
021303472O0210012081041014000000000COMMUNITY BANK, NA                  1 TALLMAN RD                        CANTON              NY136170000315379454511     
021303511O0210012081040714000000000NBT BANK NA                         51 SOUTH BROAD ST                   NORWICH             NY138150000800628226511     
021303618O0210012081041907000000000NBT BANK NA                         52 SOUTH BROAD STREET               NORWICH             NY138150000800628226511     
021304675O0210012081032911000000000BALLSTON SPA NATIONAL BANK          39 BATH ST.                         BALLSTON SPA        NY120200000518363862111     
021305386O0210012081041014000000000COMMUNITY BANK, NA                  1 TALLMAN RD                        CANTON              NY136170000315379454511     
021305577O0210012081040714000000000NBT BANK, NATIONAL ASSOCIATION      51 SOUTH BROAD ST                   NORWICH             NY138150000800628226511     
021305991O0210012081072888000000000FIRST NATL BK OF GROTON             161 MAIN STREET                     GROTON              NY130731131607898587111     
021306547O0210012081040709000000000CAYUGA LAKE NATL BK                 3 N CAYUGA ST                       UNION SPRINGS       NY131600000315889735811     
021306822O0210012081031209000000000HSBC BANK, USA                      P.O. BOX 643                        BUFFALO             NY142400000877472224911     
021306974O0210012081040714000000000NBT BANK NA                         51 SOUTH BROAD ST                   NORWICH             NY138150000607337621211     
021307054O0210012081032111000000000NATIONAL BANK OF COXSACKIE          3-7 REED ST.  P.O.BOX 400           COXSACKIE           NY120510000518731616111     
021307096O0210012081022814000000000DELAWARE NATL BK OF DELHI           P.O. BOX 508                        DELHI               NY137530508855413354411     
021307164O0210012081031309000000000FIRST NATL BK OF DRYDEN             7 WEST MAIN STREET                  DRYDEN              NY130530000607844814111     
021307520O0210012081040714000000000NBT BANK NA                         51 SOUTH BROAD ST                   NORWICH             NY138150000800628226511     
021307559O0210012081041014000000000COMMUNITY BANK N.A.                 1 TALLMAN RD                        CANTON              NY136170000315379454511     
021307708O0210012081062711000000000TD BANK NA                          P.O. BOX 1377                       LEWISTON            ME042401377877898782111     
021307711O0210012081101894000000000NATL UNION BANK OF KINDERHOOK       1 HUDSON STREET                     KINDERHOOK          NY121060000518758710111     
021307740O0210012081040714000000000NBT BANK NA                         51 SOUTH BROAD ST                   NORWICH             NY138150000800628226511     
021308176O0210012081012813000000000CITIBANK NYS                        111 SYLVAN AVENUE                   ENGLEWOOD CLIFFS    NJ076320000201242220711     
021308396O0210012081031610000000000BANK OF RICHMONDVILLE               P.O. BOX 40                         COBLESKILL          NY120430000518234439711     
021308642O0210012081032813000000000TIOGA STATE BANK                    P.O. BOX 386                        SPENCER             NY148830000607589760011     
021308781O0210012081041014000000000COMMUNITY BANK, N.A.                1 TALLMAN RD                        CANTON              NY136170000315379454511     
021308817O0210012081020116000000000COMMUNITY BANK, NA                  1 TALLMAN RD                        CANTON              NY136170000315379454511     
021308833O0210012081082216000000000WAYNE BANK                          717 MAIN STREET                     HONESDALE           PA184310000570253854311     
021309201O0210012081032614000000000CITIZENS NATIONAL BANK OF HAMMOND   19 MAIN STREET                      HAMMOND             NY136460000315324596111     
021309285O0210012081040111000000000WSB MUNICIPAL BANK                  P O BOX 250                         WATERTOWN           NY136010000315222721511     
021309379O0210012081082416000000000JPMORGAN CHASE                      10430 HIGHLAND MANOR DRIVE          TAMPA               FL336100000813432370011     
021309638O0210012081040714000000000NBT BANK, N.A.                      51 SOUTH BROAD ST                   NORWICH             NY138150000800628226511     
021309735O0210012081032210000000000SOLVAY BANK                         1537 MILTON AVENUE                  SOLVAY              NY132090000315468166111     
021309997O0210012081060908000000000CITIZENS BANK OF CAPE VINCENT       P O BOX 277 BROADWAY                CAPE VINCENT        NY136180000315654211511     
021310326O0210012081041014000000000COMMUNITY BANK, N.A.                1 TALLMAN RD                        CANTON              NY136170000315379454511     
021310407O0210012081010612000000000CHAMPLAIN NATIONAL BANK             3900 NYS ROUTE 22                   WILLSBORO           NY129960000518963420111     
021310465O0210012081042209000000000THE UPSTATE NATIONAL BANK           1 W MAIN ST                         ROCHESTER           NY146140000585454345011     
021310591O0210012081020116000000000COMMUNITY BANK, NA                  1 TALLMAN RD                        CANTON              NY136170000315379454511     
021310711O0210012081040708000000000FIRST NATL BANK OF SCOTIA           201 MOHAWK AVE                      SCOTIA              NY123022128518370720011     
021311383O0210012081102213000000000BANK OF UTICA                       222 GENESEE STREET                  UTICA               NY135024385315797270011     
021311529O0210012081041807000000000SARATOGA NATL BANK & TRUST COMPANY  250 GLEN STREET                     GLENSFALLS          NY128010000518793412111     
021313103O0210012081042715000000000CITIZENS BANK NA                    ROP440                              RIVERSIDE           RI029150000800883422411     
021313569O0210012081101116000000000KEYBANK NATIONAL ASSOCIATION        NY-31-17-0119                       ALBANY              NY122110000800539296811     
021313734O0210012081060116000000000PATHFINDER BANK                     214 WEST FIRST STREET               OSWEGO              NY131260000315343005711     
021313747O0210012081101116000000000KEYBANK NATIONAL ASSOCIATION        NY-31-17-0119                       ALBANY              NY122110000800539296811     
021313886O0210012081061604000000000GREENE COUNTY COMMERCIAL BANK       302 MAIN STREET                     CATSKILL            NY124140000518943074211     
021313925O0210012081120216000000000PIONEER COMMERCIAL BANK             652 ALBANY SHAKER ROAD              ALBANY              NY122110000518273053911     
021314306O0210012081032814000000000TIOGA STATE BANK                    P O BOX 386                         SPENCER             NY148830000607589760011     
021314416O0210012081032012000000000CHAMPLAIN NATIONAL BANK             3900 NYS ROUTE 22                   WILLSBORO           NY129960000518963420111     
021314814O0210012081112410000000000CAYUGA LAKE NATIONAL BANK           P.O. BOX 512                        UNION SPRINGS       NY131600000315889735811     
021372940O0210012081052316000000000AVIDIA BANK                         42 MAIN ST                          HUDSON              MA017492123978567363811     
021373059O0210012081111317000000000NATIONAL UNION BANK OF KINDERHOOK   1 HUDSON STREET                     KINDERHOOK          NY121060000518758710111     
021382642O0210012081031010000000000STEWART'S FEDERAL CREDIT UNION      2911 STATE ROUTE 9                  BALLSTON SPA        NY120200000518581120111     
021382655O0210012081032114000000000OSWEGO COUNTY PUBLIC F.C.U.         90 EAST BRIDGE ST                   OSWEGO              NY131260000315343782211     
021383463O0210012081031710000000000UHS EMPLOYEES FCU                   33-57 HARRISON STREET               JOHNSON CITY        NY137900000607763656511     
021383528O0210012081032610000000000CROUSE  FCU                         730 S. CROUSE AVE                   SYRACUSE            NY132100000315470792811     
021383751O0210012081100316000000000ALBANY FIREMENS FCU                 532 CENTRAL AVE                     ALBANY              NY122060000518453974811     
021384200O0210012081032913000000000CVPH EMPLOYEES FCU                  75 BEEKMAN STREET                   PLATTSBURGH         NY129010000518562703011     
021384239O0210012081040214000000000DIRECTORS CHOICE CU                 1 SOUTH FAMILY DRIVE                ALBANY              NY122050000518456268611     
021384365O0210012081032013000000000FASNY FCU                           107 WASHINGTON AVENUE               ALBANY              NY122100000518434372811     
021401617O0210012081021012000000000VALLEY NATIONAL BANK                1460 VALLEY RD                      WAYNE               NJ074700000973305880011     
021404465O0210012081072505000000000BANK OF AMERICA, N.A.               VA2-430-01-01                       RICHMOND            VA232617025800446013511     
021405464O0210012081050817000000000PEOPLES UNITED BANK, NA             850 MAIN STREET                     BRIDGEPORT          CT066010000203338717111     
021406667O0210012081022410000000000BRIDGEHAMPTON NATIONAL BANK         P.O. BOX 3005                       BRIDGEHAMPTON       NY119320000631537100011     
021407912O0210012081102811000000000CAPITAL ONE, N.A.                   P.O. BOX 85139                      RICHMOND            VA232380000866561258011     
021408597O0210012081032015000000000PEOPLE'S UNITED BANK, N.A.          850 MAIN STREET                     BRIDGEPORT          CT066040000203338717111     
021408704O0210012081102811000000000CAPITAL ONE, N.A.                   P.O. BOX 85139                      RICHMOND            VA232380000866561258011     
021409169O0210012081082416000000000JPMORGAN CHASE                      3RD FLOOR                           TAMPA               FL336100000813432370011     
021409567O0210012081102811000000000CAPITAL ONE, N.A.                   P.O. BOX 85139                      RICHMOND            VA232380000866561258011     
021410080O0210012081042105000000000HSBC BANK, USA                      14TH FLOOR                          BUFFALO             NY142030000877472224911     
021410637O0210012081082416000000000JPMORGAN CHASE                      THIRD FLOOR                         TAMPA               FL336100000813432370011     
021410695O0210012081102811000000000CAPITAL ONE, N.A.                   P.O. BOX 85139                      RICHMOND            VA232380000866561258011     
021411335O0210012081052213000000000FIRST NATIONAL BANK OF LI           17 GLEN HEAD ROAD                   GLEN HEAD           NY115540000516609006011     
021412114O0210012081091514000000000NEW YORK COMMERCIAL BANK            102 DUFFY AVENUE                    HICKSVILLE          NY118010000516500631011     
021413155O0210012081061314000000000BRIDGEHAMPTON NATIONAL BANK         2200 MONTAUK HIGHWAY                BRIDGEHAMPTON       NY119320000631537100011     
021413388O0210012081031611000000000AMERICAN COMMUNITY BANK             300 GLEN STREET                     GLEN COVE           NY115420000516609097511     
021413728O0210012081032712000000000VALLEY NATIONAL BANK                1460 VALLEY ROAD                    WAYNE               NJ074700000973686506011     
021413935O0210012081062215000000000BRIDGEHAMPTON NATIONAL BANK         P. O. BOX 3005                      BRIDGEHAMPTON       NY119320000631537100011     
021414125O0110000152102315211075086RADIUS BANK                         1 HARBOR ST. STE 201                BOSTON              MA022100000617728736811     
021414280O0210012081021814000000000BRIDGEHAMPTON NATIONAL BANK         P. O. BOX 3005                      BRIDGEHAMPTON       NY119320000631537100011     
021414345O0210012082072213226070474FLUSHING BANK                       144-51 NORTHERN BLVD                FLUSHING            NY113540000718961540011     
021414426O0210012081112408000000000EMPIRE NATIONAL BANK                SUITE 8                             ISLANDIA            NY117490000631348444411     
021414455O0210012081040413000000000GOLD COAST BANK                     2929 EXPRESSWAY DRIVE NORTH         ISLANDIA            NY117490000631233860411     
021414468O0210012081032814000000000HANOVER COMMUNITY BANK              2131 JERICHO TPKE                   GARDEN CITY PARK    NY110400000516248486811     
021414617O0210012081121708000000000EMPIRE NATIONAL BANK                SUITE 8                             ISLANDIA            NY117490000631881404611     
021414675O0210012081032012000000000HANOVER COMMUNITY BANK              2131 JERICHO TURNPIKE               GARDEN CITY PARK    NY110400000516248486811     
021473030O0210012081032411000000000QUONTIC BANK                        3 GRACE AVENUE                      GREAT NECK          NY110210000516686070711     
021483282O0210012081032213000000000PEOPLE'S ALLIANCE FCU               125 WIRELESS BLVD                   HAUPPAUGE           NY117880000631434350011     
021483428O0210012081082307000000000THE HEART CENTER FCU                100 PORT WASHINGTON BLVD.           ROSLYN              NY115760000516562665011     
021484524O0210012081111610000000000AMERICAN BROADCAST EMPLOYEES FCU    7-11 FRONT STREET                   ROCKVILLE CENTRE    NY115700000516763750311     
021502011O0210012081092115000000000BANCO POPULAR                       ATTN: DEPT. 638                     SAN JUAN            PR009362708787751980011     
021502037O0210012081041697000000000THE BANK OF NOVA SCOTIA             273 PONCE DE LEON AVE               HATO REY            PR009180000787766799211     
021502040O0210012081031210000000000CITIBANK, PUERTO RICO               SUITE 600                           SAN JUAN            PR009184106787771280011     
021502095O0210012082060109021502011BANCO POPULAR DE PUERTO RICO        BUSINESS BANKING DIVISION (709)     SAN JUAN            PR009260000787751980011     
021502105O0210012082060109021502011BANCO POPULAR NATIONAL ASSOCIATION  #10 PEDRO MARQUEZ STREET            CULEBRA             PR007750000787765980011     
021502150O0210012081020116000000000BNC INTERNATIONAL BANKING CORP      SUITE 701                           SAN JUAN            PR009180000787765444011     
021502189O0210012081021017000000000FACE BANK INTERNATIONAL CORPORATION METRO OFFICE PARK                   GUAYNABO            PR009680000754300137611     
021502228O0210012081103113000000000ORIENTAL BANK                       997 SAN ROBERTO ST, 5TH FLOOR       SAN JUAN            PR009260000787993429611     
021502273O0210012081041505000000000SCOTIABANK DE PUERTO RICO           273 PONCE DE LEON AVE               HATO REY            PR009180000787766783611     
021502341O0210012081012304000000000BANCO SANTANDER DE PUERTO RICO      ARTERIAL HOSTOS AVE. C2-#1          HATO REY            PR009180000787281207511     
021502354O0210012081031714000000000FIRSTBANK PUERTO RICO               1130 MUNOZ RIVERA AVE               SAN JUAN            PR009270000787729802411     
021502383O0210012081052903000000000BANCO COOPERATIVO DE PUERTO RICO    AVE. PONCE DE LEON #623             HATO REY            PR009170000787641105711     
021502723O0210012081012304000000000BANCO SANTANDER DE PR               ARTERIAL HOSTOS AVE. C2-#1          HATO REY            PR009180000787281207511     
021502736O0210012082031912221571415ORIENTAL BANK AND TRUST             997 SAN ROBERTO ST, 5TH FLOOR       SAN JUAN            PR009260000787771680011     
021502752O0210012082031912221571415ORIENTAL BANK AND TRUST             997 SAN ROBERTO ST, 5TH FLOOR       SAN JUAN            PR009260000787771680011     
021502794O0210012081041894000000000THE BANK OF NOVA SCOTIA             273 PONCE DE LEON AVE               HATO REY            PR009180000809766799211     
021502804O0210012081111411000000000SCOTIABANK DE PUERTO RICO           273 PONCE DE LEON AVE               HATO REY            PR009180000787766799211     
021502914O0210012082031912221571415ORIENTAL BANK AND TRUST             997 SAN ROBERTO ST, 5TH FLOOR       SAN JUAN            PR009260000787771680011     
021502930O0210012082031912221571415ORIENTAL BANK AND TRUST             997 SAN ROBERTO ST, 5TH FLOOR       SAN JUAN            PR009260000787771680011     
021502943O0210012082031912221571415ORIENTAL BANK AND TRUST             997 SAN ROBERTO ST, 5TH FLOOR       SAN JUAN            PR009260000787771680011     
021582662O0210012081031710000000000COOPERATIVA A/C CAGUAS              ESQ. LOPE FLORES                    CAGUAS              PR007250000787746959511     
021582688O0210012081031611000000000BORINQUEN SUR FEDERAL CREDIT UNION  BO TALLABOA TERRENOS CORCO          PENUELAS            PR006240000787836135711     
021582691O0210012081032709000000000COOP DE AHORRA Y CREDITO AIBONITENA APARTADO 422                        AIBONITO            PR007050000787735413111     
021582701O0210012081041114000000000COOP. A/C SAULO D. RODRIGUEZ        54 SAN JOSE STREET                  GURABO              PR007780000787737350111     
021582714O0210012081032202000000000COOPERATIVA A/C LA COMERIENA        CALLE GEORGETTI NUM. 64             COMERIO             PR007820000787875254011     
021582727O0210012081081501000000000COOP.SAGRADA FAMILIA SANTA JUANITA  CALLE BOU 38                        COROZAL             PR007830000787859265011     
021582730O0210012081032002000000000COOP. DE A/C CIDRENA                PO BOX 1490                         CIDRA               PR007391490787739770011     
021582743O0210012081031909000000000COOP. A/C SAN JOSE                  106 SUR CALLE DEGETAU               AIBONITO            PR007050000787735747411     
021582756O0210012081032013000000000COOPERATIVA A/C AGUAS BUENAS        PO BOX 5                            AGUAS BUENAS        PR007030000787732403611     
021582769O0210012081031902000000000COOP A/C LA SAGRADA FAMILIA         CALLE BOU 38                        COROZAL             PR007830000787859265011     
021582785O0210012081071706000000000COOPERATIVA A/C DE ISABELA          PO BOX 552                          ISABELA             PR006620000787872226511     
021582798O0210012081081001000000000COOPERATIVA A/C SAN RAFAEL          P.O. BOX 960                        QUEBRADILLAS        PR006780000787895205011     
021582808O0210012081080609000000000COOP. DE A/C FAMILIAR PROGRESISTA   AVE DE DIEGO #479                   PUERTO NUEVO        PR009200000787783876011     
021582824O0210012081031010000000000COOP. DE A/C MOROVENA               AVE BUENA VISTA                     MOROVIS             PR006870000787862744011     
021582837O0210012081042007000000000COOPERATIVA DE A Y C DE LA AAA      AVE BARBOSA 604                     HATO REY            PR009180000787751530511     
021582853O0210012081053003000000000COOP DE AHORRO Y CREDITO LAS PIEDRASBO MONTONGS I                       LAS PIEDRAS         PR007710000787733282111     
021582866O0210012081051508000000000COOP. A/C SAN MIGUEL                GEORGETTI STREET #77                NARANJITO           PR007190000787869218011     
021582879O0210012081091515000000000COOP A/C CACSI SANTA ISABEL         4 CALLE CELIS AGUILERA              SANTA ISABEL        PR007570000787845000511     
021582905O0210012081071715000000000MEDICOOP                            BORI STREET 1512, BELISA            SAN JUAN            PR009260000787763861111     
021582918O0210012081020601000000000COOP. DE A/C DE GUAYNABO            66 CARAZO ST.                       GUAYNABO            PR009690000787720685211     
021582921O0210012081031610000000000COOPERATIVA A/C ELECTRO-COOP.       SUITE 307                           SAN JUAN            PR009070000787725333311     
021582934O0210012081081899000000000COOPERATIVA A/C AGUADILLA           P.O. BOX 541                        AGUADILLA,          PR006050000787891175511     
021582947O0210012081031909000000000COOP A/C CRISTOBAL RODRIGUEZ HIDALGOCARR. 150 KM 20.5                   COAMO               PR007690000787825149611     
021582950O0210012081011701000000000COOP. AHORRO Y CREDITO DE FLORIDA   5 TEODORO MORALES ST.               FLORIDA             PR006500000787822263011     
021582963O0210012081030698000000000COOPERATIVA AHORRO Y CRED CUPEY ALTOR.R.6 BOX 11100                     SAN JUAN            PR009260000787760226011     
021582976O0210012081042007000000000COOP DE AHORRO Y CREDITO DE AGUADA  BO ASOMANTE                         AGUADA              PR006020000787868211511     
021582989O0210012081052797000000000COOPERATIVA DE A/C CIALES           P.O. BOX 1438                       CIALES              PR006380000787871180011     
021583001O0210012081030399000000000MERCI COOP DE PUERTO RICO           PO BOX 1294                         SAN LORENZO         PR007540000787736455311     
021583027O0210012081032409000000000COOP AHORRO Y CREDITO VEGA ALTA     #61 CALLE GEORGETTI                 VEGA ALTA           PR006920000787883436011     
021583030O0210012081041504000000000COOPERATIVA DE A/C JESUS OBRERO     CARRELERA #1 KM 23.6                BARRIO RIO, GUAYNABOPR009710000787720620911     
021583043O0210012081051308000000000COOP. A/C TRIB GEN DE JUSTICIA      P.O. BOX 190887                     SAN JUAN            PR009190887787766140011     
021583056O0210012081060508000000000COOP DE A/C CIALES                  P.O. BOX 1438                       CIALES              PR006380000787871180011     
021583069O0210012081082898000000000COOPERATIVA DE A/C CIVICO PONCENA   APARTADO 186 ATOCHA STATION         PONCE               PR007330000787843648511     
021583098O0210012081012706000000000COOP. AHORRO Y CREDITO ADJUNTAS     8 PRIMO DELAGO STREET               ADJUNTAS            PR006010000787829329011     
021583108O0210012081040413000000000COOP A/C NUESTRA SRA DELA CANDELARIACARR.6685 CRUCE CARR.2              MANATI              PR006740000787854162011     
021583111O0210012081041504000000000COOP A/C SAN BLAS ILLESCAS          60 JOSE I. QUINTON STREET           COAMO               PR007690000787825117511     
021583137O0210012081012398000000000COOP. A/C DE ANASCO                 P.O. BOX 489                        ANASCO,             PR006100000787826265511     
021583140O0210012081041207000000000COOP DE AHORRO Y CREDITO NAGUABENA  B1 CALLE 3                          NAGUABO             PR007180000787874218511     
021583153O0210012081033109000000000COOP. DE A/C HORMIGUEROS            MATEO FAJARDO #11                   HORMIGUEROS         PR006600000787849224011     
021583179O0210012081041607000000000COOP. A/C HOGAR CRISTIANO DE CIALES P.O. BOX 1438                       CIALES              PR006380000787871180011     
021583195O0210012081032614000000000COOP. DE A/C ABRAHAM ROSA           SECTOR MACUN                        TOA BAJA            PR009490000787622305511     
021583218O0210012081040208000000000COOPERATIVA A/C LARES REGION CENTRALROOM 3.B                            LANES               PR006690000809897274011     
021583247O0210012081012401000000000COOPERATIVA DE A/C SABANENA         AVE. QUILICHINI #22                 SABANA GRANDE       PR006370000809873530011     
021583276O0210012081090399000000000COOPERATIVA DE A/C CARIBE COOP      P.O. BOX 560464                     GUAYANILLA          PR006560464787835248011     
021583292O0210012081051508000000000COOP A/C EMPL DEP EDUCACION         CAPARRA HEIGHTS STATION             SAN JUAN            PR009220000787753895211     
021583302O0210012081041608000000000COOP.A/C DE LA CASA DEL TRABAJADOR  EDIF. PRUDENCIO RIVERA MARTINEZ     SAN JUAN            PR009180000787765592511     
021583328O0210012081041007000000000COOPERATIVA A/C CAPARRA             SUITE F-16                          GUAYNABO            PR009682601787792130211     
021583331O0210012081051208000000000COOP A/C ELI LILLY AND CO, INC.     CARR PR#3 SUITE 204                 CAROLINA            PR009850000787701555311     
021583344O0210012081072309000000000COOP. A/C PUEBLOCOOP                600 CALLE B                         CAROLINA            PR009823774787769020611     
021583357O0210012081050313000000000COOP. FED. DE EMPLEADOS TELEFONICOS PO BOX 12011                        SAN JUAN            PR009200000787749050011     
021583360O0210012081100599000000000COOPERATIVA DE A/C MAYAGUEZ         CALLE DR BASORA #52                 MAYAGUEZ            PR006800000787832655511     
021583373O0210012081060308000000000COOP. A/C BO. QUEBRADA              CARR 129 KM 18.5                    BO QUEBRADA CAMUY   PR006270000787898797911     
021583386O0210012081050605000000000COOP DE A/C DE QUEBRADILLAS         CALLE RAFOLS ESQ. DEL CARMEN        QUEBRADILLAS        PR006781561787895300011     
021583412O0210012081032911000000000COOP A/C OFICIALES DE CUSTODIA DE PR1100 CALLE 54 SE                    SAN JUAN,           PR009212731787751748011     
021583483O0210012081031210000000000COOPERATIVA ASOCIACIONE PARROQUIALESPO BOX 1553                         VILLALBA            PR007660000787847266011     
021583506O0210012081091597000000000COOPERATIVA A/C GERENCIALES AEE     SAN ALBERTO 504                     SANTURCE            PR009070000787722030311     
021583535O0210012081032602000000000COOPERATIVA DE AHORRO Y CREDITO SALIP O BOX 1169                        SALINAS             PR007510000787824229011     
021583551O0210012081072613000000000COOP. A/C LA REGLA DE ORO           BUENA VISTA                         BAYAMON             PR009560000787799361211     
021583577O0210012081020117000000000COOPERATIVA A/C DE RINCON           CALLE CAMBIJA 5                     RINCON              PR006770000787823273511     
021583593O0210012081012914000000000COOPERATIVA DE AHORRO Y CREDITOVILLAP. O. BOX 1554                      VILLALBA            PR007660000787847564011     
021583603O0210012081042709000000000COOP. A/C DE LA ASSN. DE MAESTROS PRESQ BETANCES                        SAN JUAN            PR009180000787754789511     
021583645O0210012081042298000000000COOP. DE A/C COMUNAL DE DORADO      APARTADO 643                        DORADO              PR006460000787796102311     
021583658O0210012081041406000000000COOP A/C EMP. AUTO ENERGIA ELECTRICAPONCE DE LEON AVE, 1060 STOP 16 1/2 SAN JUAN            PR009080000787725881111     
021583726O0210012081051208000000000COOP. DE A/C EMP. DEL CENTRO MEDICO P O BOX 2129                        SAN JUAN            PR009222129787282799611     
021583771O0210012081041608000000000UNIVERSAL COOP FCU                  14 PIMENTEL ST.                     RIO GRANDE          PR007450000787887219511     
021584149O0210012081032212000000000COOP A/C FED MAESTROS PR            URB EXT CARIBE 4C                   SAN JUAN            PR009270000787620266711     
021584165O0210012081041113000000000COOP EMPLEADOS AGENCIAS AGRICOLAS PRBO. CUPEY                           SAN JUAN            PR007260000787764695511     
021584178O0210012081031910000000000COOP DE A/C DE LA UNIVERSDAD DE PR  PO BOX 22325 UPR STATION            SAN JUAN            PR009312325787250740111     
021584181O0210012081052708000000000COOP A/C EMP MUN GUAYNABO           CARAZO #94, ESQ BARBOSA             GUAYNABO            PR009690000787790860611     
021584217O0210012081041505000000000COOPERATIVA DE A/C LOS HERMANOS     P.O. BOX 21410                      SAN JUAN            PR009281410787764545411     
021584275O0210012081042209000000000COOPERATIVA DE A/C UTI DE PR        1550 PONCE DE LEON                  SAN JUAN            PR009240000787759692811     
021584291O0210012081040209000000000COOP. A/C DEPT. AGRICULTURA PR      AVENIDA FRDZ. JUNCOS                SANTURCE            PR009083583787723151311     
021584314O0210012081032013000000000COOP MIEMBROS UNION DE TRONQUISTAS  357  DEL PARQUE                     SAN JUAN            PR009120000787723099611     
021584330O0210012081032409000000000GLAMOUR COMMUNITY FCU               BARRIO CACAO SECTOR LA ROMANA       QUEBRADILLAS        PR006780000787895358611     
021584385O0210012081071107000000000COOP. A/C EMP DEPT HACIENDA         P.O. BOX 9024140                    SAN JUAN            PR009020000787722360111     
021584424O0210012081120512000000000COOPERATIVE A/C EMPLS. SUBSIDIARIAS CALL BOX 31000                      SAN ANTONIO         PR006900000787819530811     
021584479O0210012081021717000000000V.A.P.R FEDERAL CREDIT UNION        PO BOX 33017                        SAN JUAN            PR009330017787764372911     
021584495O0210012081042209000000000COOP A/C CENTRA GUB MINILLAS        ROBERTO SANCHEZ VILELLA             SAN JUAN            PR009400000787727791511     
021584592O0210012081081512000000000COOP. EMPLEADOS DE CERVECERA DE PR  # 100                               MAYAGUEZ            PR006800000787834100011     
021584631O0210012081082416000000000COOPERATIVA DE A/C EMP GRUPO HIMA   PO BOX 5459                         CAGUAS              PR007250000787653378011     
021584644O0210012081022916000000000COOPERATIVA DE AHORRO Y CREDITO SOL #53 EDIF. CARIBE 14TH PL.           SAN JUAN            PR009010000787638911111     
021584657O0210012081082416000000000COOPERATIVA A/C RICO DAIRY          P.O. BOX 363207                     SAN JUAN            PR009363207787470640211     
021584660O0210012081102416000000000COOPERATIVA DE AHORRO Y CREDITO TUCO209 ROBERTO H TODD AVE              SAN JUAN            PR009070000787288266811     
021606056O0210012081052094000000000THE BANK OF NOVA SCOTIA             PO BOX 366262                       HATO REY            PR009360000809766799211     
021606069O0210012081052094000000000THE BANK OF NOVA SCOTIA             PO BOX 366262                       HATO REY            PR009360000809766799211     
021606111O0210012081041894000000000THE BANK OF NOVA SCOTIA             273 PONCE DE LEON AVE               HATO REY            PR009180000809766799211     
021606218O0210012081060508000000000SCOTIABANK                          P O BOX 420                         ST. THOMAS          VI008040000340774003711     
021606580O0210012081051508000000000BANCO POPULAR DE PR                 BUSINESS BANKING DIVISION 709       SAN JUAN            PR009260000787751980011     
021606674O0210012081040902000000000BANCO POPULAR DE PR                 CARR. 176 KM 1.3                    SAN JUAN            PR009260000787751980011     
021606690O0810000452071017286371663UNITED FIDELITY BANK, FSB           P O BOX 1347                        EVANSVILLE          IN477060000340773850011     
021606742O0210012081032111000000000MERCHANTS COMMERCIAL BANK           4608 TUTU PARK MALL                 ST THOMAS           VI008021735340779226511     
021683781O0210012081032613000000000CHRISTIANSTED FEDERAL CR UNION      P.O. BOX 490                        CHRISTIANSTED       VI008210000340773544411     
021683794O0210012081050613000000000FREDERIKSTED FCU                    FREDERIKSTED                        ST CROIX            VI008410000340772245511     
021684133O0210012081091708000000000MID-ISLAND FEDERAL CREDIT UNION     #49 CASTLE COAKLEY                  CHRISTIANSTED       VI008200000340778629711     
021901748O0210012081072505000000000BANK OF AMERICA, N.A.               VA2-430-01-01                       RICHMOND            VA232617025800446013511     
021902352O0210012081111715000000000BANK OF NEW YORK MELLON             500 ROSS ST.                        PITTSBURGH          PA152620001412236333811     
021902475O0210012081072916000000000ORANGE BANK & TRUST COMPANY         P.O. BOX 790                        MIDDLETOWN,         NY109400000845341510311     
021905977O0210012081051916000000000KEY BANK                            NY-31-17-0119                       ALBANY              NY122110000800539296811     
021906471O0210012081051106000000000M & T BANK                          2ND FLOOR                           AMHERST             NY142280000800724224011     
021906808O0210012081032911000000000PUTNAM COUNTY NATIONAL BANK         43 GLENEIDA AVE.                    CARMEL              NY105120000845225368811     
021906934O0210012081051916000000000KEY BANK                            NY-31-17-0119                       ALBANY              NY122110000800539296811     
021907315O0210012081071715000000000STERLING NATIONAL BANK              400 RELLA BLVD                      MONTEBELLO          NY109010000845369804011     
021907577O0210012081051106000000000M & T BANK                          2ND FLOOR                           AMHERST             NY142280000800724224011     
021907975O0210012081032911000000000BANK OF MILLBROOK                   3263 FRANKLIN AVENUE                MILLBROOK           NY125450000845677532111     
021908275O0210012081032614000000000BANK OF MILLBROOK                   PO BOX AF                           MILLBROOK           NY125450000845677532111     
021908288O0210012081111715000000000BANK OF NEW YORK MELLON             500 ROSS ST.                        PITTSBURG           PA152620001412236333811     
021909300O0210012081120715000000000STERLING NATIONAL BANK              400 RELLA BOULEVARD                 MONTEBELLO          NY109010000845369804011     
021909342O0210012081062813000000000JEFF BANK                           4866 STATE ROUTE 52                 JEFFERSONVILLE      NY127480000845482400011     
021910836O0210012081050908000000000MAHOPAC NATIONAL BANK               630 ROUTE 6                         MAHOPAC             NY105410000914628342111     
021911343O0110000152120814011102612SALISBURY BANK & TRUST CO           100 MAIN STREET                     CANAAN              CT060180000860435980111     
021911369O0210012081040612000000000COUNTRY BANK                        9TH FLOOR                           NEW YORK            NY100170000212818909011     
021911398O0210012081010214000000000MAHOPAC  BANK                       P O BOX 460                         ITHACA              NY148510000607273321011     
021912410O0210012081071715000000000STERLING NATIONAL BANK              400 RELLA BLVD                      MONTEBELLO          NY109010000845369804011     
021912915O0210012081092809000000000TD  BANK USA, N.A.                  BATES MILL #3 4TH FLOOR             LEWISTON            ME042400000800281002511     
021912928O0210012081111414000000000CATSKILL HUDSON BANK                SUITE 3                             MONTICELLO          NY127010000845334008811     
021913639O0210012081082014000000000GREATER HUDSON BANK, N.A.           715 E ROUTE 304                     BARDONA             NY109540000845215100111     
021913642O0210012081061515000000000PCSB COMMERCIAL BANK                2477 ROUTE 6                        BREWSTER            NY105090417845278899211     
021913655O0210012081071715000000000STERLING NATIONAL BANK              400 RELLA BLVD                      MONTEBELLO          NY109010000845369804011     
021913862O0210012081062904000000000EMPIRE STATE BANK                   68 NORTH PLANK ROAD                 NEWBURGH            NY125500000845451781011     
021914078O0210012081032312000000000CUSTOMERS BANK                      99 BRIDGE STREET                    PHOENIXVILLE        PA194600000484359713211     
021914544O0210012081121715000000000THE WESTCHESTER BANK                12 WATER STREET                     WHITE PLAINS        NY106010000914337190011     
021973019O0210012081020110000000000WEBSTER BANK                        436 SLATER ROAD                     NEW BRITAIN         CT060530000860612652211     
021983258O0210012081032114000000000O&R UTILITIES EMPLOYEES FCU         P. O. BOX 470                       MONROE              NY109490000845774083111     
021984532O0210012081103114000000000PREPAID HVFCU                       159 BARNEGAT ROAD                   POUGHKEEPSIE        NY126010000800468301111     
022000020O0210012081031209000000000HSBC BANK USA, N.A                  EAST PLAZA                          BUFFALO             NY142030000877472224911     
022000046O0210012081101910000000000M & T BANK                          2ND FLOOR                           AMHERST             NY142280000800724224011     
022000127O0210012081101310000000000BANK OF AMERICA, N.A.               8001 VILLA PARK DRIVE               HENRICO             VA232280000800446013511     
022000839O0210012081051916000000000KEY BANK                            NY-31-17-0119                       ALBANY              NY122110000800304985611     
022000842O0210012081082416000000000JPMORGAN CHASE                      10430 HIGHLAND MANOR DRIVE          TAMPA               FL336100000813432380011     
022000868O0210012081012813000000000CITIBANK NA                         ONE PENN'S WAY                      NEW CASTLE          DE197200000302323426011     
022072692O0210012081101116000000000KEYBANK NATIONAL ASSOCIATION        NY-31-17-0119                       ALBANY              NY122110000800539296811     
022083649O0210012081032113000000000KALEIDA HEALTH FCU                  ATTN: CREDIT UNION                  BUFFALO             NY142030000716859596011     
022083665O0210012081031212000000000BUFFALO COOP FCU                    816 ELMWOOD AVENUE                  BUFFALO             NY142220000716881376711     
022083694O0210012081070607000000000TOWN OF CHEEKTOWAGA FCU             3251 BROADWAY                       CHEEKTOWAGA         NY142270000716686349711     
022083830O0210012081030215000000000KALEIDA HEALTH FCU                  ATTN: CREDIT UNION                  BUFFALO             NY142030000716859596011     
022300160O0210012081072505000000000BANK OF AMERICA, N.A.               VA2-430-01-01                       RICHMOND            VA232617025800446013511     
022300173O0210012081082416000000000JPMORGAN CHASE                      3RD FLOOR                           TAMPA               FL336100000813432370011     
022300186O0210012081031209000000000HSBC BANK, USA                      P.O. BOX 643                        BUFFALO             NY142400000877472224911     
022302689O0210012081041014000000000COMMUNITY BANK, N.A.                1 TALLMAN RD                        CANTON              NY136170000315379454511     
022302786O0210012081081999000000000STEUBEN TR CO                       ONE STEUBEN SQUARE                  HORNELL             NY148431699607324956811     
022302935O0210012081040314000000000FIVE STAR BANK                      P O BOX 227                         WARSAW              NY145690000585786118211     
022303659O0210012081031710000000000CANANDAIGUA NAT'L BANK & TR. CO.    72 SOUTH MAIN STREET                CANANDAIGUA         NY144240341585393613611     
022304030O0210012081051613000000000FIVE STAR BANK                      P O BOX 227                         WARSAW              NY145690000585786118211     
